:100000000C9434000C9449000C9449000C94490061
:100010000C9449000C9449000C9449000C9449003C
:100020000C9449000C9449000C9449000C9449002C
:100030000C9449000C9449000C9449000C9449001C
:100040000C9449000C9449000C9449000C9449000C
:100050000C9449000C9449000C9449000C944900FC
:100060000C9449000C94490011241FBECFEFD8E036
:10007000DEBFCDBF11E0A0E0B1E0E6E2F4E002C0F7
:1000800005900D92A435B107D9F70E9471010C9427
:1000900011020C9400008FEF8AB91BB884B915B80F
:1000A00087B987B18E7F87B918B808950F931F93CA
:1000B000FC01E61BF70B021B130BE09FC001E19F45
:1000C000900DF09F900D1124FA01E61BF70BBF0174
:1000D0000E94E901C901860F971F1F910F91089592
:1000E000EAE7F0E080818768808380E480937C0089
:1000F00008958FE39CE90197F1F700C00000EAE75B
:10010000F0E080818064808380917A0086FDFCCF5E
:100110008FE39CE90197F1F700C00000809178001F
:100120009091790008959BB19D7F9BB988231CF421
:100130009BB192609BB99BB19B7F9BB986FF03C02B
:100140009BB194609BB99BB1977F9BB985FF03C01E
:100150009BB198609BB99BB19F7E9BB984FF03C004
:100160009BB190619BB995B19F7B95B983FF03C00B
:1001700095B1906495B995B19F7795B982FF03C009
:1001800095B1906895B99BB19F7D9BB981FF03C0E4
:100190009BB190629BB99BB19F7B9BB980FF03C0D1
:1001A0008BB180648BB98BB180688BB985E08A95FF
:1001B000F1F700008BB18F778BB985E08A95F1F765
:1001C0000000089595B1916095B99BB19F779BB957
:1001D0000E94930008950F931F93CF93DF9300D055
:1001E000CDB7DEB78C011A82198212C0E981FA817B
:1001F000E00FF11F80810E94E20089819A810196BF
:100200009A8389838FE391E00197F1F700C00000A2
:10021000E981FA81E00FF11F80818111E7CF0F9012
:100220000F90DF91CF911F910F91089595B19E7F0F
:1002300095B99BB19F779BB90E94930008952FEFCA
:1002400081EE94E0215080409040E1F700C0000032
:1002500080E30E9416018FE39CE90197F1F700C04B
:10026000000080E30E9416018FE193E00197F1F70F
:1002700000C0000080E30E9416018FE193E0019727
:10028000F1F700C0000088E30E9416018FE391E0BF
:100290000197F1F700C0000088E00E9416018FE38B
:1002A00091E00197F1F700C0000081E00E94160183
:1002B0008FE79EE30197F1F700C0000086E00E94FF
:1002C00016018FE391E00197F1F700C000008CE088
:1002D0000E9416018FE391E00197F1F700C0000042
:1002E00008958AB182608AB98AB184608AB98AB174
:1002F00088608AB98AB180618AB984B1806484B91E
:1003000084B1806884B98AB180628AB98AB1806414
:100310008AB98AB180688AB984B1816084B90E943F
:100320001F010E944B000E9470000E94790003E0B0
:1003300010E020E030E048EE53E060E070E00E9422
:10034000560081309105F1F01CF4892B39F0EDCF86
:100350008230910521F1039779F1E7CF8FE391E0A6
:100360000E94EB0085B1877F85B985B18B7F85B908
:1003700085B18D7F85B98FE391E00197F1F700C0DA
:100380000000D3CF8AE291E00E94EB0082E085B9C1
:100390008FE391E00197F1F700C00000C6CF85E13F
:1003A00091E00E94EB0086E085B98FE391E0019730
:1003B000F1F700C00000B9CF80E091E00E94EB00AF
:1003C0008EE085B98FE391E00197F1F700C000005E
:1003D000ACCF97FB072E16F4009407D077FD09D019
:1003E0000E94FD0107FC05D03EF4909581959F4F3A
:1003F0000895709561957F4F0895AA1BBB1B51E12D
:1004000007C0AA1FBB1FA617B70710F0A61BB70B84
:10041000881F991F5A95A9F780959095BC01CD0129
:060420000895F894FFCFDF
:10042600337264204C4544205475726E6564204FC7
:100436004E21212100326E64204C454420547572B1
:100446006E6564204F4E21212100317374204C4586
:1004560044205475726E6564204F4E212121004E52
:100466006F204C454473205475726E6564204F4E60
:04047600212121001F
:00000001FF
