:100000000C943C000C9451000C9451000C94510041
:100010000C9451000C9451000C9451000C9451001C
:100020000C9451000C9451000C9451000C9451000C
:100030000C9451000C9451000C9451000C945100FC
:100040000C9451000C9451000C9451000C945100EC
:100050000C9451000C9451000C9451000C945100DC
:100060000C9451000C945100B101D101F0010F0228
:100070002E024D026C028B0211241FBECFEFD8E07E
:10008000DEBFCDBF11E0A0E0B1E0E4EBF5E002C0DF
:1000900005900D92A83AB107D9F70E9479010C9406
:1000A000D8020C9400008FEF8AB91BB884B915B838
:1000B00087B987B18E7F87B918B808950F931F93BA
:1000C000FC01E61BF70B021B130BE09FC001E19F35
:1000D000900DF09F900D1124FA01E61BF70BBF0164
:1000E0000E94AA02C901860F971F1F910F910895C0
:1000F000EAE7F0E080818768808380E480937C0079
:1001000008958FE39CE90197F1F700C00000EAE74A
:10011000F0E080818064808380917A0086FDFCCF4E
:100120008FE39CE90197F1F700C00000809178000F
:100130009091790008959BB19D7F9BB988231CF411
:100140009BB192609BB99BB19B7F9BB986FF03C01B
:100150009BB194609BB99BB1977F9BB985FF03C00E
:100160009BB198609BB99BB19F7E9BB984FF03C0F4
:100170009BB190619BB995B19F7B95B983FF03C0FB
:1001800095B1906495B995B19F7795B982FF03C0F9
:1001900095B1906895B99BB19F7D9BB981FF03C0D4
:1001A0009BB190629BB99BB19F7B9BB980FF03C0C1
:1001B0008BB180648BB98BB180688BB985E08A95EF
:1001C000F1F700008BB18F778BB985E08A95F1F755
:1001D0000000089595B1916095B99BB19F779BB947
:1001E0000E949B0008950F931F93CF93DF9300D03D
:1001F000CDB7DEB78C011A82198212C0E981FA816B
:10020000E00FF11F80810E94EA0089819A810196A6
:100210009A8389838FE391E00197F1F700C0000092
:10022000E981FA81E00FF11F80818111E7CF0F9002
:100230000F90DF91CF911F910F91089595B19E7FFF
:1002400095B99BB19F779BB90E949B0008952FEFB2
:1002500081EE94E0215080409040E1F700C0000022
:1002600080E30E941E018FE39CE90197F1F700C033
:10027000000080E30E941E018FE193E00197F1F7F7
:1002800000C0000080E30E941E018FE193E001970F
:10029000F1F700C0000088E30E941E018FE391E0A7
:1002A0000197F1F700C0000088E00E941E018FE373
:1002B00091E00197F1F700C0000081E00E941E016B
:1002C0008FE79EE30197F1F700C0000086E00E94EF
:1002D0001E018FE391E00197F1F700C000008CE070
:1002E0000E941E018FE391E00197F1F700C000002A
:1002F00008958AB182608AB98AB184608AB98AB164
:1003000088608AB98AB180618AB984B1806484B90D
:1003100084B1806884B98AB180628AB98AB1806404
:100320008AB98AB180688AB984B1816084B90E942F
:1003300027010E9453000E9478000E94810007E07C
:1003400010E020E030E048EE53E060E070E00E9412
:100350005E008830910588F78C5C9F4FFC010C94FF
:10036000BE0283E991E00E94F30088B18B7F88B9D7
:1003700088B18D7F88B985B18F7D85B985B18F7E34
:1003800085B985B1877F85B985B18B7F85B985B101
:100390008D7F85B98FE391E00197F1F700C00000F0
:1003A000CCCF8EE791E00E94F30084E088B988B159
:1003B0008D7F88B985B18F7D85B985B18F7E85B9EF
:1003C00085B1877F85B985B18B7F85B985B18D7FF3
:1003D00085B9EFE3F1E03197F1F700C00000ADCF50
:1003E00089E691E00E94F30088B18B7F88B982E0B2
:1003F00088B985B18F7D85B985B18F7E85B985B185
:10040000877F85B985B18B7F85B985B18D7F85B9AA
:100410008FE391E00197F1F700C000008ECF84E5F3
:1004200091E00E94F30088B18B7F88B988B18D7FFD
:1004300088B980E285B985B18F7E85B985B1877F1E
:1004400085B985B18B7F85B985B18D7F85B9EFE39E
:10045000F1E03197F1F700C000006FCF8FE391E03A
:100460000E94F30088B18B7F88B988B18D7F88B9ED
:1004700085B18F7D85B980E185B985B1877F85B9E3
:1004800085B18B7F85B985B18D7F85B98FE391E08B
:100490000197F1F700C0000050CF8AE291E00E947E
:1004A000F30088B18B7F88B988B18D7F88B985B119
:1004B0008F7D85B985B18F7E85B988E085B985B195
:1004C0008B7F85B985B18D7F85B9EFE3F1E03197F9
:1004D000F1F700C0000031CF85E191E00E94F30008
:1004E00088B18B7F88B988B18D7F88B985B18F7DC0
:1004F00085B985B18F7E85B985B1877F85B984E05F
:1005000085B985B18D7F85B98FE391E00197F1F7CA
:1005100000C0000012CF80E091E00E94F30088B19B
:100520008B7F88B988B18D7F88B985B18F7D85B97A
:1005300085B18F7E85B985B1877F85B985B18B7F80
:1005400085B982E085B9EFE3F1E03197F1F700C0BA
:100550000000F3CE97FB072E16F4009407D077FD2A
:1005600009D00E94C40207FC05D03EF49095819505
:100570009F4F0895709561957F4F0895EE0FFF1F6F
:100580000590F491E02D0994AA1BBB1B51E107C013
:10059000AA1FBB1FA617B70710F0A61BB70B881F13
:1005A000991F5A95A9F780959095BC01CD010895A2
:0405B000F894FFCFED
:1005B400377468204C4544205475726E6564204F2E
:1005C4004E21212100367468204C45442054757214
:1005D4006E6564204F4E21212100357468204C45FE
:1005E40044205475726E6564204F4E2121210034DD
:1005F4007468204C4544205475726E6564204F4ED7
:1006040021212100337264204C4544205475726EBC
:100614006564204F4E21212100326E64204C4544F4
:10062400205475726E6564204F4E21212100317370
:1006340074204C4544205475726E6564204F4E21DD
:100644002121004E6F204C454473205475726E6511
:0806540064204F4E212121001A
:00000001FF
